{
  "_format": "hh-sol-artifact-1",
  "contractName": "Raffle",
  "sourceName": "contracts/raffle.sol",
  "abi": [
    {
      "inputs": [
        {
          "internalType": "address",
          "name": "vrfCoordinatorV2",
          "type": "address"
        },
        {
          "internalType": "uint256",
          "name": "entranceFee",
          "type": "uint256"
        },
        {
          "internalType": "bytes32",
          "name": "gasLane",
          "type": "bytes32"
        },
        {
          "internalType": "uint64",
          "name": "subscriptionId",
          "type": "uint64"
        },
        {
          "internalType": "uint32",
          "name": "callbackGasLimit",
          "type": "uint32"
        },
        {
          "internalType": "uint256",
          "name": "interval",
          "type": "uint256"
        }
      ],
      "stateMutability": "nonpayable",
      "type": "constructor"
    },
    {
      "inputs": [
        {
          "internalType": "address",
          "name": "have",
          "type": "address"
        },
        {
          "internalType": "address",
          "name": "want",
          "type": "address"
        }
      ],
      "name": "OnlyCoordinatorCanFulfill",
      "type": "error"
    },
    {
      "inputs": [],
      "name": "Raffle__NotEnoughEthEntered",
      "type": "error"
    },
    {
      "inputs": [],
      "name": "Raffle__NotOpen",
      "type": "error"
    },
    {
      "inputs": [],
      "name": "Raffle__TransferFailed",
      "type": "error"
    },
    {
      "inputs": [
        {
          "internalType": "uint256",
          "name": "currentBalance",
          "type": "uint256"
        },
        {
          "internalType": "uint256",
          "name": "numPlayers",
          "type": "uint256"
        },
        {
          "internalType": "uint256",
          "name": "raffleState",
          "type": "uint256"
        }
      ],
      "name": "Raffle__UpKeepNotNeeded",
      "type": "error"
    },
    {
      "anonymous": false,
      "inputs": [
        {
          "indexed": true,
          "internalType": "address",
          "name": "player",
          "type": "address"
        }
      ],
      "name": "Raffle_Entered",
      "type": "event"
    },
    {
      "anonymous": false,
      "inputs": [
        {
          "indexed": true,
          "internalType": "uint256",
          "name": "requestId",
          "type": "uint256"
        }
      ],
      "name": "RequestedRaffleWinner",
      "type": "event"
    },
    {
      "anonymous": false,
      "inputs": [
        {
          "indexed": true,
          "internalType": "address",
          "name": "WinnerPicked",
          "type": "address"
        }
      ],
      "name": "WinnerPicked",
      "type": "event"
    },
    {
      "inputs": [
        {
          "internalType": "bytes",
          "name": "",
          "type": "bytes"
        }
      ],
      "name": "checkUpkeep",
      "outputs": [
        {
          "internalType": "bool",
          "name": "upKeepNeeded",
          "type": "bool"
        },
        {
          "internalType": "bytes",
          "name": "",
          "type": "bytes"
        }
      ],
      "stateMutability": "nonpayable",
      "type": "function"
    },
    {
      "inputs": [],
      "name": "enterRaffle",
      "outputs": [],
      "stateMutability": "payable",
      "type": "function"
    },
    {
      "inputs": [],
      "name": "getEntranceFee",
      "outputs": [
        {
          "internalType": "uint256",
          "name": "",
          "type": "uint256"
        }
      ],
      "stateMutability": "view",
      "type": "function"
    },
    {
      "inputs": [],
      "name": "getNumWords",
      "outputs": [
        {
          "internalType": "uint256",
          "name": "",
          "type": "uint256"
        }
      ],
      "stateMutability": "pure",
      "type": "function"
    },
    {
      "inputs": [
        {
          "internalType": "uint256",
          "name": "index",
          "type": "uint256"
        }
      ],
      "name": "getPlayers",
      "outputs": [
        {
          "internalType": "address",
          "name": "",
          "type": "address"
        }
      ],
      "stateMutability": "view",
      "type": "function"
    },
    {
      "inputs": [],
      "name": "getRaffleState",
      "outputs": [
        {
          "internalType": "enum Raffle.RaffleState",
          "name": "",
          "type": "uint8"
        }
      ],
      "stateMutability": "view",
      "type": "function"
    },
    {
      "inputs": [],
      "name": "getWinner",
      "outputs": [
        {
          "internalType": "address",
          "name": "",
          "type": "address"
        }
      ],
      "stateMutability": "view",
      "type": "function"
    },
    {
      "inputs": [
        {
          "internalType": "bytes",
          "name": "",
          "type": "bytes"
        }
      ],
      "name": "performUpkeep",
      "outputs": [],
      "stateMutability": "nonpayable",
      "type": "function"
    },
    {
      "inputs": [
        {
          "internalType": "uint256",
          "name": "requestId",
          "type": "uint256"
        },
        {
          "internalType": "uint256[]",
          "name": "randomWords",
          "type": "uint256[]"
        }
      ],
      "name": "rawFulfillRandomWords",
      "outputs": [],
      "stateMutability": "nonpayable",
      "type": "function"
    }
  ],
  "bytecode": "0x6101606040523480156200001257600080fd5b50604051620016ff380380620016ff8339818101604052810190620000389190620001ad565b858073ffffffffffffffffffffffffffffffffffffffff1660808173ffffffffffffffffffffffffffffffffffffffff1660601b81525050508460a081815250508573ffffffffffffffffffffffffffffffffffffffff1660c08173ffffffffffffffffffffffffffffffffffffffff1660601b815250508360e081815250508267ffffffffffffffff166101008167ffffffffffffffff1660c01b815250508163ffffffff166101208163ffffffff1660e01b815250506000600160146101000a81548160ff02191690836001811115620001195762000118620002b5565b5b0217905550426002819055508061014081815250505050505050506200036b565b6000815190506200014b81620002e9565b92915050565b600081519050620001628162000303565b92915050565b60008151905062000179816200031d565b92915050565b600081519050620001908162000337565b92915050565b600081519050620001a78162000351565b92915050565b60008060008060008060c08789031215620001cd57620001cc620002e4565b5b6000620001dd89828a016200013a565b9650506020620001f089828a0162000168565b95505060406200020389828a0162000151565b94505060606200021689828a0162000196565b93505060806200022989828a016200017f565b92505060a06200023c89828a0162000168565b9150509295509295509295565b6000620002568262000267565b9050919050565b6000819050919050565b600073ffffffffffffffffffffffffffffffffffffffff82169050919050565b6000819050919050565b600063ffffffff82169050919050565b600067ffffffffffffffff82169050919050565b7f4e487b7100000000000000000000000000000000000000000000000000000000600052602160045260246000fd5b600080fd5b620002f48162000249565b81146200030057600080fd5b50565b6200030e816200025d565b81146200031a57600080fd5b50565b620003288162000287565b81146200033457600080fd5b50565b620003428162000291565b81146200034e57600080fd5b50565b6200035c81620002a1565b81146200036857600080fd5b50565b60805160601c60a05160c05160601c60e0516101005160c01c6101205160e01c6101405161131f620003e06000396000610714015260006105b3015260006105900152600061056f01526000610533015260008181610212015261030f01526000818161024f01526102a3015261131f6000f3fe6080604052600436106100865760003560e01c80634585e33b116100595780634585e33b14610114578063460e20491461013d57806353a2c19a1461017a5780636e04ff0d146101a55780638e7ea5b2146101e357610086565b806309bc33a71461008b578063115cbaf5146100b65780631fe543e3146100e15780632cfcc5391461010a575b600080fd5b34801561009757600080fd5b506100a061020e565b6040516100ad9190610f25565b60405180910390f35b3480156100c257600080fd5b506100cb610236565b6040516100d89190610f0a565b60405180910390f35b3480156100ed57600080fd5b5061010860048036038101906101039190610cfe565b61024d565b005b61011261030d565b005b34801561012057600080fd5b5061013b60048036038101906101369190610c0e565b61047c565b005b34801561014957600080fd5b50610164600480360381019061015f9190610ca4565b61067b565b6040516101719190610e43565b60405180910390f35b34801561018657600080fd5b5061018f6106c2565b60405161019c9190610f25565b60405180910390f35b3480156101b157600080fd5b506101cc60048036038101906101c79190610c5b565b6106d1565b6040516101da929190610e87565b60405180910390f35b3480156101ef57600080fd5b506101f861077e565b6040516102059190610e43565b60405180910390f35b60007f0000000000000000000000000000000000000000000000000000000000000000905090565b6000600160149054906101000a900460ff16905090565b7f000000000000000000000000000000000000000000000000000000000000000073ffffffffffffffffffffffffffffffffffffffff163373ffffffffffffffffffffffffffffffffffffffff16146102ff57337f00000000000000000000000000000000000000000000000000000000000000006040517f1cf993f40000000000000000000000000000000000000000000000000000000081526004016102f6929190610e5e565b60405180910390fd5b61030982826107a8565b5050565b7f0000000000000000000000000000000000000000000000000000000000000000341015610367576040517f066d781f00000000000000000000000000000000000000000000000000000000815260040160405180910390fd5b6000600181111561037b5761037a6111ff565b5b600160149054906101000a900460ff16600181111561039d5761039c6111ff565b5b146103d4576040517f1425571c00000000000000000000000000000000000000000000000000000000815260040160405180910390fd5b6000339080600181540180825580915050600190039060005260206000200160009091909190916101000a81548173ffffffffffffffffffffffffffffffffffffffff021916908373ffffffffffffffffffffffffffffffffffffffff1602179055503373ffffffffffffffffffffffffffffffffffffffff167ff52f611361c8bc5994f3224cf508c7ec859e5fc473614371381ea1edefc7002e60405160405180910390a2565b6000610496604051806020016040528060008152506106d1565b509050806105055747600080549050600160149054906101000a900460ff1660018111156104c7576104c66111ff565b5b6040517f3a8d60860000000000000000000000000000000000000000000000000000000081526004016104fc93929190610f40565b60405180910390fd5b60018060146101000a81548160ff0219169083600181111561052a576105296111ff565b5b021790555060007f000000000000000000000000000000000000000000000000000000000000000073ffffffffffffffffffffffffffffffffffffffff16635d3b1d307f00000000000000000000000000000000000000000000000000000000000000007f000000000000000000000000000000000000000000000000000000000000000060037f000000000000000000000000000000000000000000000000000000000000000060016040518663ffffffff1660e01b81526004016105f4959493929190610eb7565b602060405180830381600087803b15801561060e57600080fd5b505af1158015610622573d6000803e3d6000fd5b505050506040513d601f19601f820116820180604052508101906106469190610cd1565b9050807fcd6e45c8998311cab7e9d4385596cac867e20a0587194b954fa3a731c93ce78b60405160405180910390a250505050565b60008082815481106106905761068f61122e565b5b9060005260206000200160009054906101000a900473ffffffffffffffffffffffffffffffffffffffff169050919050565b6000600163ffffffff16905090565b600060606000600160149054906101000a900460ff1660018111156106f9576106f86111ff565b5b6000600181111561070d5761070c6111ff565b5b14905060007f0000000000000000000000000000000000000000000000000000000000000000600254426107419190611020565b119050600080600080549050119050600080471190508380156107615750815b801561076a5750805b80156107735750825b955050505050915091565b6000600160009054906101000a900473ffffffffffffffffffffffffffffffffffffffff16905090565b60008080549050826000815181106107c3576107c261122e565b5b60200260200101516107d59190611170565b905060008082815481106107ec576107eb61122e565b5b9060005260206000200160009054906101000a900473ffffffffffffffffffffffffffffffffffffffff16905080600160006101000a81548173ffffffffffffffffffffffffffffffffffffffff021916908373ffffffffffffffffffffffffffffffffffffffff1602179055506000600160146101000a81548160ff021916908360018111156108805761087f6111ff565b5b0217905550600067ffffffffffffffff8111156108a05761089f61125d565b5b6040519080825280602002602001820160405280156108ce5781602001602082028036833780820191505090505b50600090805190602001906108e49291906109d9565b504260028190555060008173ffffffffffffffffffffffffffffffffffffffff164760405161091290610e2e565b60006040518083038185875af1925050503d806000811461094f576040519150601f19603f3d011682016040523d82523d6000602084013e610954565b606091505b505090508061098f576040517fa1d04b3900000000000000000000000000000000000000000000000000000000815260040160405180910390fd5b8173ffffffffffffffffffffffffffffffffffffffff167f5b690ec4a06fe979403046eaeea5b3ce38524683c3001f662c8b5a829632f7df60405160405180910390a25050505050565b828054828255906000526020600020908101928215610a52579160200282015b82811115610a515782518260006101000a81548173ffffffffffffffffffffffffffffffffffffffff021916908373ffffffffffffffffffffffffffffffffffffffff160217905550916020019190600101906109f9565b5b509050610a5f9190610a63565b5090565b5b80821115610a7c576000816000905550600101610a64565b5090565b6000610a93610a8e84610f9c565b610f77565b90508083825260208201905082856020860282011115610ab657610ab5611296565b5b60005b85811015610ae65781610acc8882610be4565b845260208401935060208301925050600181019050610ab9565b5050509392505050565b6000610b03610afe84610fc8565b610f77565b905082815260208101848484011115610b1f57610b1e61129b565b5b610b2a8482856110fd565b509392505050565b600082601f830112610b4757610b46611291565b5b8135610b57848260208601610a80565b91505092915050565b60008083601f840112610b7657610b75611291565b5b8235905067ffffffffffffffff811115610b9357610b9261128c565b5b602083019150836001820283011115610baf57610bae611296565b5b9250929050565b600082601f830112610bcb57610bca611291565b5b8135610bdb848260208601610af0565b91505092915050565b600081359050610bf3816112d2565b92915050565b600081519050610c08816112d2565b92915050565b60008060208385031215610c2557610c246112a5565b5b600083013567ffffffffffffffff811115610c4357610c426112a0565b5b610c4f85828601610b60565b92509250509250929050565b600060208284031215610c7157610c706112a5565b5b600082013567ffffffffffffffff811115610c8f57610c8e6112a0565b5b610c9b84828501610bb6565b91505092915050565b600060208284031215610cba57610cb96112a5565b5b6000610cc884828501610be4565b91505092915050565b600060208284031215610ce757610ce66112a5565b5b6000610cf584828501610bf9565b91505092915050565b60008060408385031215610d1557610d146112a5565b5b6000610d2385828601610be4565b925050602083013567ffffffffffffffff811115610d4457610d436112a0565b5b610d5085828601610b32565b9150509250929050565b610d6381611054565b82525050565b610d7281611066565b82525050565b610d8181611072565b82525050565b6000610d9282610ff9565b610d9c8185611004565b9350610dac81856020860161110c565b610db5816112aa565b840191505092915050565b610dc9816110eb565b82525050565b6000610ddc600083611015565b9150610de7826112bb565b600082019050919050565b610dfb8161108f565b82525050565b610e0a816110bd565b82525050565b610e19816110c7565b82525050565b610e28816110d7565b82525050565b6000610e3982610dcf565b9150819050919050565b6000602082019050610e586000830184610d5a565b92915050565b6000604082019050610e736000830185610d5a565b610e806020830184610d5a565b9392505050565b6000604082019050610e9c6000830185610d69565b8181036020830152610eae8184610d87565b90509392505050565b600060a082019050610ecc6000830188610d78565b610ed96020830187610e1f565b610ee66040830186610df2565b610ef36060830185610e10565b610f006080830184610e10565b9695505050505050565b6000602082019050610f1f6000830184610dc0565b92915050565b6000602082019050610f3a6000830184610e01565b92915050565b6000606082019050610f556000830186610e01565b610f626020830185610e01565b610f6f6040830184610e01565b949350505050565b6000610f81610f92565b9050610f8d828261113f565b919050565b6000604051905090565b600067ffffffffffffffff821115610fb757610fb661125d565b5b602082029050602081019050919050565b600067ffffffffffffffff821115610fe357610fe261125d565b5b610fec826112aa565b9050602081019050919050565b600081519050919050565b600082825260208201905092915050565b600081905092915050565b600061102b826110bd565b9150611036836110bd565b925082821015611049576110486111a1565b5b828203905092915050565b600061105f8261109d565b9050919050565b60008115159050919050565b6000819050919050565b600081905061108a826112be565b919050565b600061ffff82169050919050565b600073ffffffffffffffffffffffffffffffffffffffff82169050919050565b6000819050919050565b600063ffffffff82169050919050565b600067ffffffffffffffff82169050919050565b60006110f68261107c565b9050919050565b82818337600083830152505050565b60005b8381101561112a57808201518184015260208101905061110f565b83811115611139576000848401525b50505050565b611148826112aa565b810181811067ffffffffffffffff821117156111675761116661125d565b5b80604052505050565b600061117b826110bd565b9150611186836110bd565b925082611196576111956111d0565b5b828206905092915050565b7f4e487b7100000000000000000000000000000000000000000000000000000000600052601160045260246000fd5b7f4e487b7100000000000000000000000000000000000000000000000000000000600052601260045260246000fd5b7f4e487b7100000000000000000000000000000000000000000000000000000000600052602160045260246000fd5b7f4e487b7100000000000000000000000000000000000000000000000000000000600052603260045260246000fd5b7f4e487b7100000000000000000000000000000000000000000000000000000000600052604160045260246000fd5b600080fd5b600080fd5b600080fd5b600080fd5b600080fd5b600080fd5b6000601f19601f8301169050919050565b50565b600281106112cf576112ce6111ff565b5b50565b6112db816110bd565b81146112e657600080fd5b5056fea2646970667358221220f3f2309ea948c04be5cbb89fe71f8442e4be2f1b014602ad033df881972b4d8d64736f6c63430008070033",
  "linkReferences": {},
  "deployedLinkReferences": {}
}