{
  "_format": "hh-sol-artifact-1",
  "contractName": "Raffle",
  "sourceName": "contracts/Raffle.sol",
  "abi": [
    {
      "inputs": [
        {
          "internalType": "address",
          "name": "vrfCoordinatorV2",
          "type": "address"
        },
        {
          "internalType": "uint256",
          "name": "entranceFee",
          "type": "uint256"
        },
        {
          "internalType": "bytes32",
          "name": "gasLane",
          "type": "bytes32"
        },
        {
          "internalType": "uint64",
          "name": "subscriptionId",
          "type": "uint64"
        },
        {
          "internalType": "uint32",
          "name": "callbackGasLimit",
          "type": "uint32"
        },
        {
          "internalType": "uint256",
          "name": "interval",
          "type": "uint256"
        }
      ],
      "stateMutability": "nonpayable",
      "type": "constructor"
    },
    {
      "inputs": [
        {
          "internalType": "address",
          "name": "have",
          "type": "address"
        },
        {
          "internalType": "address",
          "name": "want",
          "type": "address"
        }
      ],
      "name": "OnlyCoordinatorCanFulfill",
      "type": "error"
    },
    {
      "inputs": [],
      "name": "Raffle__NotEnoughEthEntered",
      "type": "error"
    },
    {
      "inputs": [],
      "name": "Raffle__NotOpen",
      "type": "error"
    },
    {
      "inputs": [],
      "name": "Raffle__TransferFailed",
      "type": "error"
    },
    {
      "inputs": [
        {
          "internalType": "uint256",
          "name": "currentBalance",
          "type": "uint256"
        },
        {
          "internalType": "uint256",
          "name": "numPlayers",
          "type": "uint256"
        },
        {
          "internalType": "uint256",
          "name": "raffleState",
          "type": "uint256"
        }
      ],
      "name": "Raffle__UpKeepNotNeeded",
      "type": "error"
    },
    {
      "anonymous": false,
      "inputs": [
        {
          "indexed": true,
          "internalType": "address",
          "name": "player",
          "type": "address"
        }
      ],
      "name": "Raffle_Entered",
      "type": "event"
    },
    {
      "anonymous": false,
      "inputs": [
        {
          "indexed": true,
          "internalType": "uint256",
          "name": "requestId",
          "type": "uint256"
        }
      ],
      "name": "RequestedRaffleWinner",
      "type": "event"
    },
    {
      "anonymous": false,
      "inputs": [
        {
          "indexed": true,
          "internalType": "address",
          "name": "WinnerPicked",
          "type": "address"
        }
      ],
      "name": "WinnerPicked",
      "type": "event"
    },
    {
      "inputs": [
        {
          "internalType": "bytes",
          "name": "",
          "type": "bytes"
        }
      ],
      "name": "checkUpkeep",
      "outputs": [
        {
          "internalType": "bool",
          "name": "upKeepNeeded",
          "type": "bool"
        },
        {
          "internalType": "bytes",
          "name": "",
          "type": "bytes"
        }
      ],
      "stateMutability": "nonpayable",
      "type": "function"
    },
    {
      "inputs": [],
      "name": "enterRaffle",
      "outputs": [],
      "stateMutability": "payable",
      "type": "function"
    },
    {
      "inputs": [],
      "name": "getEntranceFee",
      "outputs": [
        {
          "internalType": "uint256",
          "name": "",
          "type": "uint256"
        }
      ],
      "stateMutability": "view",
      "type": "function"
    },
    {
      "inputs": [],
      "name": "getInterval",
      "outputs": [
        {
          "internalType": "uint256",
          "name": "",
          "type": "uint256"
        }
      ],
      "stateMutability": "view",
      "type": "function"
    },
    {
      "inputs": [],
      "name": "getLatestTimeStamp",
      "outputs": [
        {
          "internalType": "uint256",
          "name": "",
          "type": "uint256"
        }
      ],
      "stateMutability": "view",
      "type": "function"
    },
    {
      "inputs": [],
      "name": "getNumOfPlayers",
      "outputs": [
        {
          "internalType": "uint256",
          "name": "",
          "type": "uint256"
        }
      ],
      "stateMutability": "view",
      "type": "function"
    },
    {
      "inputs": [],
      "name": "getNumWords",
      "outputs": [
        {
          "internalType": "uint256",
          "name": "",
          "type": "uint256"
        }
      ],
      "stateMutability": "pure",
      "type": "function"
    },
    {
      "inputs": [
        {
          "internalType": "uint256",
          "name": "index",
          "type": "uint256"
        }
      ],
      "name": "getPlayer",
      "outputs": [
        {
          "internalType": "address",
          "name": "",
          "type": "address"
        }
      ],
      "stateMutability": "view",
      "type": "function"
    },
    {
      "inputs": [
        {
          "internalType": "uint256",
          "name": "index",
          "type": "uint256"
        }
      ],
      "name": "getPlayers",
      "outputs": [
        {
          "internalType": "address",
          "name": "",
          "type": "address"
        }
      ],
      "stateMutability": "view",
      "type": "function"
    },
    {
      "inputs": [],
      "name": "getRaffleState",
      "outputs": [
        {
          "internalType": "enum Raffle.RaffleState",
          "name": "",
          "type": "uint8"
        }
      ],
      "stateMutability": "view",
      "type": "function"
    },
    {
      "inputs": [],
      "name": "getRequestConfirmations",
      "outputs": [
        {
          "internalType": "uint256",
          "name": "",
          "type": "uint256"
        }
      ],
      "stateMutability": "pure",
      "type": "function"
    },
    {
      "inputs": [],
      "name": "getWinner",
      "outputs": [
        {
          "internalType": "address",
          "name": "",
          "type": "address"
        }
      ],
      "stateMutability": "view",
      "type": "function"
    },
    {
      "inputs": [
        {
          "internalType": "bytes",
          "name": "",
          "type": "bytes"
        }
      ],
      "name": "performUpkeep",
      "outputs": [],
      "stateMutability": "nonpayable",
      "type": "function"
    },
    {
      "inputs": [
        {
          "internalType": "uint256",
          "name": "requestId",
          "type": "uint256"
        },
        {
          "internalType": "uint256[]",
          "name": "randomWords",
          "type": "uint256[]"
        }
      ],
      "name": "rawFulfillRandomWords",
      "outputs": [],
      "stateMutability": "nonpayable",
      "type": "function"
    }
  ],
  "bytecode": "0x6101606040523480156200001257600080fd5b50604051620018d8380380620018d88339818101604052810190620000389190620001ad565b858073ffffffffffffffffffffffffffffffffffffffff1660808173ffffffffffffffffffffffffffffffffffffffff1660601b81525050508460a081815250508573ffffffffffffffffffffffffffffffffffffffff1660c08173ffffffffffffffffffffffffffffffffffffffff1660601b815250508360e081815250508267ffffffffffffffff166101008167ffffffffffffffff1660c01b815250508163ffffffff166101208163ffffffff1660e01b815250506000600160146101000a81548160ff02191690836001811115620001195762000118620002b5565b5b0217905550426002819055508061014081815250505050505050506200036b565b6000815190506200014b81620002e9565b92915050565b600081519050620001628162000303565b92915050565b60008151905062000179816200031d565b92915050565b600081519050620001908162000337565b92915050565b600081519050620001a78162000351565b92915050565b60008060008060008060c08789031215620001cd57620001cc620002e4565b5b6000620001dd89828a016200013a565b9650506020620001f089828a0162000168565b95505060406200020389828a0162000151565b94505060606200021689828a0162000196565b93505060806200022989828a016200017f565b92505060a06200023c89828a0162000168565b9150509295509295509295565b6000620002568262000267565b9050919050565b6000819050919050565b600073ffffffffffffffffffffffffffffffffffffffff82169050919050565b6000819050919050565b600063ffffffff82169050919050565b600067ffffffffffffffff82169050919050565b7f4e487b7100000000000000000000000000000000000000000000000000000000600052602160045260246000fd5b600080fd5b620002f48162000249565b81146200030057600080fd5b50565b6200030e816200025d565b81146200031a57600080fd5b50565b620003288162000287565b81146200033457600080fd5b50565b620003428162000291565b81146200034e57600080fd5b50565b6200035c81620002a1565b81146200036857600080fd5b50565b60805160601c60a05160c05160601c60e0516101005160c01c6101205160e01c610140516114f1620003e760003960008181610877015261090f015260006106fd015260006106da015260006106b90152600061067d015260008181610352015261044f01526000818161038f01526103e301526114f16000f3fe6080604052600436106100dd5760003560e01c806353a2c19a1161007f5780636e04ff0d116100595780636e04ff0d1461027d5780638e7ea5b2146102bb57806391ad27b4146102e6578063e55ae4e814610311576100dd565b806353a2c19a146101fc578063565429de146102275780635f1b0fd814610252576100dd565b80632cfcc539116100bb5780632cfcc53914610161578063320229eb1461016b5780634585e33b14610196578063460e2049146101bf576100dd565b806309bc33a7146100e2578063115cbaf51461010d5780631fe543e314610138575b600080fd5b3480156100ee57600080fd5b506100f761034e565b60405161010491906110f7565b60405180910390f35b34801561011957600080fd5b50610122610376565b60405161012f91906110dc565b60405180910390f35b34801561014457600080fd5b5061015f600480360381019061015a9190610ed0565b61038d565b005b61016961044d565b005b34801561017757600080fd5b506101806105bc565b60405161018d91906110f7565b60405180910390f35b3480156101a257600080fd5b506101bd60048036038101906101b89190610de0565b6105c6565b005b3480156101cb57600080fd5b506101e660048036038101906101e19190610e76565b6107c5565b6040516101f39190611015565b60405180910390f35b34801561020857600080fd5b5061021161080c565b60405161021e91906110f7565b60405180910390f35b34801561023357600080fd5b5061023c61081b565b60405161024991906110f7565b60405180910390f35b34801561025e57600080fd5b50610267610827565b60405161027491906110f7565b60405180910390f35b34801561028957600080fd5b506102a4600480360381019061029f9190610e2d565b610834565b6040516102b2929190611059565b60405180910390f35b3480156102c757600080fd5b506102d06108e1565b6040516102dd9190611015565b60405180910390f35b3480156102f257600080fd5b506102fb61090b565b60405161030891906110f7565b60405180910390f35b34801561031d57600080fd5b5061033860048036038101906103339190610e76565b610933565b6040516103459190611015565b60405180910390f35b60007f0000000000000000000000000000000000000000000000000000000000000000905090565b6000600160149054906101000a900460ff16905090565b7f000000000000000000000000000000000000000000000000000000000000000073ffffffffffffffffffffffffffffffffffffffff163373ffffffffffffffffffffffffffffffffffffffff161461043f57337f00000000000000000000000000000000000000000000000000000000000000006040517f1cf993f4000000000000000000000000000000000000000000000000000000008152600401610436929190611030565b60405180910390fd5b610449828261097a565b5050565b7f00000000000000000000000000000000000000000000000000000000000000003410156104a7576040517f066d781f00000000000000000000000000000000000000000000000000000000815260040160405180910390fd5b600060018111156104bb576104ba6113d1565b5b600160149054906101000a900460ff1660018111156104dd576104dc6113d1565b5b14610514576040517f1425571c00000000000000000000000000000000000000000000000000000000815260040160405180910390fd5b6000339080600181540180825580915050600190039060005260206000200160009091909190916101000a81548173ffffffffffffffffffffffffffffffffffffffff021916908373ffffffffffffffffffffffffffffffffffffffff1602179055503373ffffffffffffffffffffffffffffffffffffffff167ff52f611361c8bc5994f3224cf508c7ec859e5fc473614371381ea1edefc7002e60405160405180910390a2565b6000600254905090565b60006105e060405180602001604052806000815250610834565b5090508061064f5747600080549050600160149054906101000a900460ff166001811115610611576106106113d1565b5b6040517f3a8d608600000000000000000000000000000000000000000000000000000000815260040161064693929190611112565b60405180910390fd5b60018060146101000a81548160ff02191690836001811115610674576106736113d1565b5b021790555060007f000000000000000000000000000000000000000000000000000000000000000073ffffffffffffffffffffffffffffffffffffffff16635d3b1d307f00000000000000000000000000000000000000000000000000000000000000007f000000000000000000000000000000000000000000000000000000000000000060037f000000000000000000000000000000000000000000000000000000000000000060016040518663ffffffff1660e01b815260040161073e959493929190611089565b602060405180830381600087803b15801561075857600080fd5b505af115801561076c573d6000803e3d6000fd5b505050506040513d601f19601f820116820180604052508101906107909190610ea3565b9050807fcd6e45c8998311cab7e9d4385596cac867e20a0587194b954fa3a731c93ce78b60405160405180910390a250505050565b60008082815481106107da576107d9611400565b5b9060005260206000200160009054906101000a900473ffffffffffffffffffffffffffffffffffffffff169050919050565b6000600163ffffffff16905090565b60008080549050905090565b6000600361ffff16905090565b600060606000600160149054906101000a900460ff16600181111561085c5761085b6113d1565b5b600060018111156108705761086f6113d1565b5b14905060007f0000000000000000000000000000000000000000000000000000000000000000600254426108a491906111f2565b119050600080600080549050119050600080471190508380156108c45750815b80156108cd5750805b80156108d65750825b955050505050915091565b6000600160009054906101000a900473ffffffffffffffffffffffffffffffffffffffff16905090565b60007f0000000000000000000000000000000000000000000000000000000000000000905090565b600080828154811061094857610947611400565b5b9060005260206000200160009054906101000a900473ffffffffffffffffffffffffffffffffffffffff169050919050565b600080805490508260008151811061099557610994611400565b5b60200260200101516109a79190611342565b905060008082815481106109be576109bd611400565b5b9060005260206000200160009054906101000a900473ffffffffffffffffffffffffffffffffffffffff16905080600160006101000a81548173ffffffffffffffffffffffffffffffffffffffff021916908373ffffffffffffffffffffffffffffffffffffffff1602179055506000600160146101000a81548160ff02191690836001811115610a5257610a516113d1565b5b0217905550600067ffffffffffffffff811115610a7257610a7161142f565b5b604051908082528060200260200182016040528015610aa05781602001602082028036833780820191505090505b5060009080519060200190610ab6929190610bab565b504260028190555060008173ffffffffffffffffffffffffffffffffffffffff1647604051610ae490611000565b60006040518083038185875af1925050503d8060008114610b21576040519150601f19603f3d011682016040523d82523d6000602084013e610b26565b606091505b5050905080610b61576040517fa1d04b3900000000000000000000000000000000000000000000000000000000815260040160405180910390fd5b8173ffffffffffffffffffffffffffffffffffffffff167f5b690ec4a06fe979403046eaeea5b3ce38524683c3001f662c8b5a829632f7df60405160405180910390a25050505050565b828054828255906000526020600020908101928215610c24579160200282015b82811115610c235782518260006101000a81548173ffffffffffffffffffffffffffffffffffffffff021916908373ffffffffffffffffffffffffffffffffffffffff16021790555091602001919060010190610bcb565b5b509050610c319190610c35565b5090565b5b80821115610c4e576000816000905550600101610c36565b5090565b6000610c65610c608461116e565b611149565b90508083825260208201905082856020860282011115610c8857610c87611468565b5b60005b85811015610cb85781610c9e8882610db6565b845260208401935060208301925050600181019050610c8b565b5050509392505050565b6000610cd5610cd08461119a565b611149565b905082815260208101848484011115610cf157610cf061146d565b5b610cfc8482856112cf565b509392505050565b600082601f830112610d1957610d18611463565b5b8135610d29848260208601610c52565b91505092915050565b60008083601f840112610d4857610d47611463565b5b8235905067ffffffffffffffff811115610d6557610d6461145e565b5b602083019150836001820283011115610d8157610d80611468565b5b9250929050565b600082601f830112610d9d57610d9c611463565b5b8135610dad848260208601610cc2565b91505092915050565b600081359050610dc5816114a4565b92915050565b600081519050610dda816114a4565b92915050565b60008060208385031215610df757610df6611477565b5b600083013567ffffffffffffffff811115610e1557610e14611472565b5b610e2185828601610d32565b92509250509250929050565b600060208284031215610e4357610e42611477565b5b600082013567ffffffffffffffff811115610e6157610e60611472565b5b610e6d84828501610d88565b91505092915050565b600060208284031215610e8c57610e8b611477565b5b6000610e9a84828501610db6565b91505092915050565b600060208284031215610eb957610eb8611477565b5b6000610ec784828501610dcb565b91505092915050565b60008060408385031215610ee757610ee6611477565b5b6000610ef585828601610db6565b925050602083013567ffffffffffffffff811115610f1657610f15611472565b5b610f2285828601610d04565b9150509250929050565b610f3581611226565b82525050565b610f4481611238565b82525050565b610f5381611244565b82525050565b6000610f64826111cb565b610f6e81856111d6565b9350610f7e8185602086016112de565b610f878161147c565b840191505092915050565b610f9b816112bd565b82525050565b6000610fae6000836111e7565b9150610fb98261148d565b600082019050919050565b610fcd81611261565b82525050565b610fdc8161128f565b82525050565b610feb81611299565b82525050565b610ffa816112a9565b82525050565b600061100b82610fa1565b9150819050919050565b600060208201905061102a6000830184610f2c565b92915050565b60006040820190506110456000830185610f2c565b6110526020830184610f2c565b9392505050565b600060408201905061106e6000830185610f3b565b81810360208301526110808184610f59565b90509392505050565b600060a08201905061109e6000830188610f4a565b6110ab6020830187610ff1565b6110b86040830186610fc4565b6110c56060830185610fe2565b6110d26080830184610fe2565b9695505050505050565b60006020820190506110f16000830184610f92565b92915050565b600060208201905061110c6000830184610fd3565b92915050565b60006060820190506111276000830186610fd3565b6111346020830185610fd3565b6111416040830184610fd3565b949350505050565b6000611153611164565b905061115f8282611311565b919050565b6000604051905090565b600067ffffffffffffffff8211156111895761118861142f565b5b602082029050602081019050919050565b600067ffffffffffffffff8211156111b5576111b461142f565b5b6111be8261147c565b9050602081019050919050565b600081519050919050565b600082825260208201905092915050565b600081905092915050565b60006111fd8261128f565b91506112088361128f565b92508282101561121b5761121a611373565b5b828203905092915050565b60006112318261126f565b9050919050565b60008115159050919050565b6000819050919050565b600081905061125c82611490565b919050565b600061ffff82169050919050565b600073ffffffffffffffffffffffffffffffffffffffff82169050919050565b6000819050919050565b600063ffffffff82169050919050565b600067ffffffffffffffff82169050919050565b60006112c88261124e565b9050919050565b82818337600083830152505050565b60005b838110156112fc5780820151818401526020810190506112e1565b8381111561130b576000848401525b50505050565b61131a8261147c565b810181811067ffffffffffffffff821117156113395761133861142f565b5b80604052505050565b600061134d8261128f565b91506113588361128f565b925082611368576113676113a2565b5b828206905092915050565b7f4e487b7100000000000000000000000000000000000000000000000000000000600052601160045260246000fd5b7f4e487b7100000000000000000000000000000000000000000000000000000000600052601260045260246000fd5b7f4e487b7100000000000000000000000000000000000000000000000000000000600052602160045260246000fd5b7f4e487b7100000000000000000000000000000000000000000000000000000000600052603260045260246000fd5b7f4e487b7100000000000000000000000000000000000000000000000000000000600052604160045260246000fd5b600080fd5b600080fd5b600080fd5b600080fd5b600080fd5b600080fd5b6000601f19601f8301169050919050565b50565b600281106114a1576114a06113d1565b5b50565b6114ad8161128f565b81146114b857600080fd5b5056fea2646970667358221220e01495078def10e004722d6c1f1f9f031c297f14e3455a8d7eeac3bed48eb13b64736f6c63430008070033",
  "linkReferences": {},
  "deployedLinkReferences": {}
}